{
  "abi": [
    {
      "inputs": [
        {
          "internalType": "bytes",
          "name": "stargatePayload",
          "type": "bytes"
        }
      ],
      "name": "findStargatePayload",
      "outputs": [
        {
          "internalType": "uint256",
          "name": "",
          "type": "uint256"
        },
        {
          "internalType": "bytes",
          "name": "",
          "type": "bytes"
        }
      ],
      "stateMutability": "view",
      "type": "function"
    },
    {
      "inputs": [
        {
          "internalType": "bytes",
          "name": "inputData",
          "type": "bytes"
        },
        {
          "internalType": "address",
          "name": "soDiamond",
          "type": "address"
        }
      ],
      "name": "tryFindStargatePayload",
      "outputs": [
        {
          "internalType": "uint256",
          "name": "",
          "type": "uint256"
        },
        {
          "internalType": "bytes",
          "name": "",
          "type": "bytes"
        }
      ],
      "stateMutability": "view",
      "type": "function"
    }
  ],
  "bytecode": "608060405234801561001057600080fd5b50610b1b806100206000396000f3fe608060405234801561001057600080fd5b50600436106100365760003560e01c806302521f321461003b578063a9121afa14610065575b600080fd5b61004e6100493660046108c4565b610078565b60405161005c92919061095d565b60405180910390f35b61004e610073366004610976565b6103e0565b6000606061008461079f565b600080610091868261052b565b60ff1690506100a16001836109ea565b91506100ae86838361058c565b8351526100bb81836109ea565b91506100c7868361052b565b60ff1690506100d76001836109ea565b91506100e486838361058c565b8351602001526100f481836109ea565b9150610100868361052b565b60ff1690506101106001836109ea565b915061011d86838361058c565b835160a0015261012d81836109ea565b915085518210156103c757610142868361052b565b60ff1690506101526001836109ea565b9150600061016961016488858561058c565b610699565b905061017582846109ea565b92508067ffffffffffffffff811115610190576101906107ff565b6040519080825280602002602001820160405280156101fa57816020015b6101e76040518060c001604052806060815260200160608152602001606081526020016060815260200160008152602001606081525090565b8152602001906001900390816101ae5790505b50602085015260005b818110156103c457610215888561052b565b60ff1692506102256001856109ea565b935061023288858561058c565b8560200151828151811061024857610248610a02565b6020026020010151600001819052508460200151818151811061026d5761026d610a02565b6020026020010151600001518560200151828151811061028f5761028f610a02565b60209081029190910181015101526102a783856109ea565b93506102b3888561052b565b60ff1692506102c36001856109ea565b93506102d088858561058c565b856020015182815181106102e6576102e6610a02565b6020908102919091010151604001526102ff83856109ea565b935061030b888561052b565b60ff16925061031b6001856109ea565b935061032888858561058c565b8560200151828151811061033e5761033e610a02565b60209081029190910101516060015261035783856109ea565b935061036388856106dd565b61ffff1692506103746002856109ea565b935061038188858561058c565b8560200151828151811061039757610397610a02565b602090810291909101015160a001526103b083856109ea565b9350806103bc81610a18565b915050610203565b50505b816103d48760008361058c565b94509450505050915091565b600060606029845110156104065750506040805160208101909152600080825290610524565b60005b602985516104179190610a31565b81101561050f57610428858261073a565b6001600160a01b0316846001600160a01b0316036104ff5761045561044e8260286109ea565b869061052b565b60ff166020036104ff57306302521f326104946104738460286109ea565b6028858a516104829190610a31565b61048c9190610a31565b89919061058c565b6040518263ffffffff1660e01b81526004016104b09190610a48565b600060405180830381865afa9250505080156104ee57506040513d6000823e601f3d908101601f191682016040526104eb9190810190610a62565b60015b156104ff5790935091506105249050565b61050881610a18565b9050610409565b50506040805160208101909152600080825291505b9250929050565b60006105388260016109ea565b835110156105835760405162461bcd60e51b8152602060048201526013602482015272746f55696e74385f6f75744f66426f756e647360681b60448201526064015b60405180910390fd5b50016001015190565b60608161059a81601f6109ea565b10156105d95760405162461bcd60e51b815260206004820152600e60248201526d736c6963655f6f766572666c6f7760901b604482015260640161057a565b6105e382846109ea565b845110156106275760405162461bcd60e51b8152602060048201526011602482015270736c6963655f6f75744f66426f756e647360781b604482015260640161057a565b6060821580156106465760405191506000825260208201604052610690565b6040519150601f8416801560200281840101858101878315602002848b0101015b8183101561067f578051835260209283019201610667565b5050858452601f01601f1916604052505b50949350505050565b600080805b83518110156106d6576106b1848261052b565b6106c29060ff16600884901b6109ea565b9150806106ce81610a18565b91505061069e565b5092915050565b60006106ea8260026109ea565b835110156107315760405162461bcd60e51b8152602060048201526014602482015273746f55696e7431365f6f75744f66426f756e647360601b604482015260640161057a565b50016002015190565b60006107478260146109ea565b8351101561078f5760405162461bcd60e51b8152602060048201526015602482015274746f416464726573735f6f75744f66426f756e647360581b604482015260640161057a565b500160200151600160601b900490565b60405180604001604052806107f26040518060e001604052806060815260200160608152602001600061ffff16815260200160608152602001600061ffff16815260200160608152602001600081525090565b8152602001606081525090565b634e487b7160e01b600052604160045260246000fd5b604051601f8201601f1916810167ffffffffffffffff8111828210171561083e5761083e6107ff565b604052919050565b600067ffffffffffffffff821115610860576108606107ff565b50601f01601f191660200190565b600082601f83011261087f57600080fd5b813561089261088d82610846565b610815565b8181528460208386010111156108a757600080fd5b816020850160208301376000918101602001919091529392505050565b6000602082840312156108d657600080fd5b813567ffffffffffffffff8111156108ed57600080fd5b6108f98482850161086e565b949350505050565b60005b8381101561091c578181015183820152602001610904565b8381111561092b576000848401525b50505050565b60008151808452610949816020860160208601610901565b601f01601f19169290920160200192915050565b8281526040602082015260006108f96040830184610931565b6000806040838503121561098957600080fd5b823567ffffffffffffffff8111156109a057600080fd5b6109ac8582860161086e565b92505060208301356001600160a01b03811681146109c957600080fd5b809150509250929050565b634e487b7160e01b600052601160045260246000fd5b600082198211156109fd576109fd6109d4565b500190565b634e487b7160e01b600052603260045260246000fd5b600060018201610a2a57610a2a6109d4565b5060010190565b600082821015610a4357610a436109d4565b500390565b602081526000610a5b6020830184610931565b9392505050565b60008060408385031215610a7557600080fd5b82519150602083015167ffffffffffffffff811115610a9357600080fd5b8301601f81018513610aa457600080fd5b8051610ab261088d82610846565b818152866020838501011115610ac757600080fd5b610ad8826020830160208601610901565b809350505050925092905056fea26469706673582212208694e2e53b414cde7c2b29f214a00321354fd6c874c3168bed5d5faad3d8b25f64736f6c634300080d0033",
  "bytecodeSha1": "6348a710e68a7630e3fa6b197b24c8d28534c738",
  "compiler": {
    "evm_version": "istanbul",
    "optimizer": {
      "enabled": true,
      "runs": 200
    },
    "version": "0.8.13+commit.abaa5c0e"
  },
  "contractName": "StargateHelper",
  "language": "Solidity",
  "natspec": {
    "kind": "dev",
    "methods": {
      "findStargatePayload(bytes)": {
        "notice": "CrossData"
      }
    },
    "version": 1
  },
  "opcodes": "PUSH1 0x80 PUSH1 0x40 MSTORE CALLVALUE DUP1 ISZERO PUSH2 0x10 JUMPI PUSH1 0x0 DUP1 REVERT JUMPDEST POP PUSH1 0x4 CALLDATASIZE LT PUSH2 0x36 JUMPI PUSH1 0x0 CALLDATALOAD PUSH1 0xE0 SHR DUP1 PUSH4 0x2521F32 EQ PUSH2 0x3B JUMPI DUP1 PUSH4 0xA9121AFA EQ PUSH2 0x65 JUMPI JUMPDEST PUSH1 0x0 DUP1 REVERT JUMPDEST PUSH2 0x4E PUSH2 0x49 CALLDATASIZE PUSH1 0x4 PUSH2 0x8C4 JUMP JUMPDEST PUSH2 0x78 JUMP JUMPDEST PUSH1 0x40 MLOAD PUSH2 0x5C SWAP3 SWAP2 SWAP1 PUSH2 0x95D JUMP JUMPDEST PUSH1 0x40 MLOAD DUP1 SWAP2 SUB SWAP1 RETURN JUMPDEST PUSH2 0x4E PUSH2 0x73 CALLDATASIZE PUSH1 0x4 PUSH2 0x976 JUMP JUMPDEST PUSH2 0x3E0 JUMP JUMPDEST PUSH1 0x0 PUSH1 0x60 PUSH2 0x84 PUSH2 0x79F JUMP JUMPDEST PUSH1 0x0 DUP1 PUSH2 0x91 DUP7 DUP3 PUSH2 0x52B JUMP JUMPDEST PUSH1 0xFF AND SWAP1 POP PUSH2 0xA1 PUSH1 0x1 DUP4 PUSH2 0x9EA JUMP JUMPDEST SWAP2 POP PUSH2 0xAE DUP7 DUP4 DUP4 PUSH2 0x58C JUMP JUMPDEST DUP4 MLOAD MSTORE PUSH2 0xBB DUP2 DUP4 PUSH2 0x9EA JUMP JUMPDEST SWAP2 POP PUSH2 0xC7 DUP7 DUP4 PUSH2 0x52B JUMP JUMPDEST PUSH1 0xFF AND SWAP1 POP PUSH2 0xD7 PUSH1 0x1 DUP4 PUSH2 0x9EA JUMP JUMPDEST SWAP2 POP PUSH2 0xE4 DUP7 DUP4 DUP4 PUSH2 0x58C JUMP JUMPDEST DUP4 MLOAD PUSH1 0x20 ADD MSTORE PUSH2 0xF4 DUP2 DUP4 PUSH2 0x9EA JUMP JUMPDEST SWAP2 POP PUSH2 0x100 DUP7 DUP4 PUSH2 0x52B JUMP JUMPDEST PUSH1 0xFF AND SWAP1 POP PUSH2 0x110 PUSH1 0x1 DUP4 PUSH2 0x9EA JUMP JUMPDEST SWAP2 POP PUSH2 0x11D DUP7 DUP4 DUP4 PUSH2 0x58C JUMP JUMPDEST DUP4 MLOAD PUSH1 0xA0 ADD MSTORE PUSH2 0x12D DUP2 DUP4 PUSH2 0x9EA JUMP JUMPDEST SWAP2 POP DUP6 MLOAD DUP3 LT ISZERO PUSH2 0x3C7 JUMPI PUSH2 0x142 DUP7 DUP4 PUSH2 0x52B JUMP JUMPDEST PUSH1 0xFF AND SWAP1 POP PUSH2 0x152 PUSH1 0x1 DUP4 PUSH2 0x9EA JUMP JUMPDEST SWAP2 POP PUSH1 0x0 PUSH2 0x169 PUSH2 0x164 DUP9 DUP6 DUP6 PUSH2 0x58C JUMP JUMPDEST PUSH2 0x699 JUMP JUMPDEST SWAP1 POP PUSH2 0x175 DUP3 DUP5 PUSH2 0x9EA JUMP JUMPDEST SWAP3 POP DUP1 PUSH8 0xFFFFFFFFFFFFFFFF DUP2 GT ISZERO PUSH2 0x190 JUMPI PUSH2 0x190 PUSH2 0x7FF JUMP JUMPDEST PUSH1 0x40 MLOAD SWAP1 DUP1 DUP3 MSTORE DUP1 PUSH1 0x20 MUL PUSH1 0x20 ADD DUP3 ADD PUSH1 0x40 MSTORE DUP1 ISZERO PUSH2 0x1FA JUMPI DUP2 PUSH1 0x20 ADD JUMPDEST PUSH2 0x1E7 PUSH1 0x40 MLOAD DUP1 PUSH1 0xC0 ADD PUSH1 0x40 MSTORE DUP1 PUSH1 0x60 DUP2 MSTORE PUSH1 0x20 ADD PUSH1 0x60 DUP2 MSTORE PUSH1 0x20 ADD PUSH1 0x60 DUP2 MSTORE PUSH1 0x20 ADD PUSH1 0x60 DUP2 MSTORE PUSH1 0x20 ADD PUSH1 0x0 DUP2 MSTORE PUSH1 0x20 ADD PUSH1 0x60 DUP2 MSTORE POP SWAP1 JUMP JUMPDEST DUP2 MSTORE PUSH1 0x20 ADD SWAP1 PUSH1 0x1 SWAP1 SUB SWAP1 DUP2 PUSH2 0x1AE JUMPI SWAP1 POP JUMPDEST POP PUSH1 0x20 DUP6 ADD MSTORE PUSH1 0x0 JUMPDEST DUP2 DUP2 LT ISZERO PUSH2 0x3C4 JUMPI PUSH2 0x215 DUP9 DUP6 PUSH2 0x52B JUMP JUMPDEST PUSH1 0xFF AND SWAP3 POP PUSH2 0x225 PUSH1 0x1 DUP6 PUSH2 0x9EA JUMP JUMPDEST SWAP4 POP PUSH2 0x232 DUP9 DUP6 DUP6 PUSH2 0x58C JUMP JUMPDEST DUP6 PUSH1 0x20 ADD MLOAD DUP3 DUP2 MLOAD DUP2 LT PUSH2 0x248 JUMPI PUSH2 0x248 PUSH2 0xA02 JUMP JUMPDEST PUSH1 0x20 MUL PUSH1 0x20 ADD ADD MLOAD PUSH1 0x0 ADD DUP2 SWAP1 MSTORE POP DUP5 PUSH1 0x20 ADD MLOAD DUP2 DUP2 MLOAD DUP2 LT PUSH2 0x26D JUMPI PUSH2 0x26D PUSH2 0xA02 JUMP JUMPDEST PUSH1 0x20 MUL PUSH1 0x20 ADD ADD MLOAD PUSH1 0x0 ADD MLOAD DUP6 PUSH1 0x20 ADD MLOAD DUP3 DUP2 MLOAD DUP2 LT PUSH2 0x28F JUMPI PUSH2 0x28F PUSH2 0xA02 JUMP JUMPDEST PUSH1 0x20 SWAP1 DUP2 MUL SWAP2 SWAP1 SWAP2 ADD DUP2 ADD MLOAD ADD MSTORE PUSH2 0x2A7 DUP4 DUP6 PUSH2 0x9EA JUMP JUMPDEST SWAP4 POP PUSH2 0x2B3 DUP9 DUP6 PUSH2 0x52B JUMP JUMPDEST PUSH1 0xFF AND SWAP3 POP PUSH2 0x2C3 PUSH1 0x1 DUP6 PUSH2 0x9EA JUMP JUMPDEST SWAP4 POP PUSH2 0x2D0 DUP9 DUP6 DUP6 PUSH2 0x58C JUMP JUMPDEST DUP6 PUSH1 0x20 ADD MLOAD DUP3 DUP2 MLOAD DUP2 LT PUSH2 0x2E6 JUMPI PUSH2 0x2E6 PUSH2 0xA02 JUMP JUMPDEST PUSH1 0x20 SWAP1 DUP2 MUL SWAP2 SWAP1 SWAP2 ADD ADD MLOAD PUSH1 0x40 ADD MSTORE PUSH2 0x2FF DUP4 DUP6 PUSH2 0x9EA JUMP JUMPDEST SWAP4 POP PUSH2 0x30B DUP9 DUP6 PUSH2 0x52B JUMP JUMPDEST PUSH1 0xFF AND SWAP3 POP PUSH2 0x31B PUSH1 0x1 DUP6 PUSH2 0x9EA JUMP JUMPDEST SWAP4 POP PUSH2 0x328 DUP9 DUP6 DUP6 PUSH2 0x58C JUMP JUMPDEST DUP6 PUSH1 0x20 ADD MLOAD DUP3 DUP2 MLOAD DUP2 LT PUSH2 0x33E JUMPI PUSH2 0x33E PUSH2 0xA02 JUMP JUMPDEST PUSH1 0x20 SWAP1 DUP2 MUL SWAP2 SWAP1 SWAP2 ADD ADD MLOAD PUSH1 0x60 ADD MSTORE PUSH2 0x357 DUP4 DUP6 PUSH2 0x9EA JUMP JUMPDEST SWAP4 POP PUSH2 0x363 DUP9 DUP6 PUSH2 0x6DD JUMP JUMPDEST PUSH2 0xFFFF AND SWAP3 POP PUSH2 0x374 PUSH1 0x2 DUP6 PUSH2 0x9EA JUMP JUMPDEST SWAP4 POP PUSH2 0x381 DUP9 DUP6 DUP6 PUSH2 0x58C JUMP JUMPDEST DUP6 PUSH1 0x20 ADD MLOAD DUP3 DUP2 MLOAD DUP2 LT PUSH2 0x397 JUMPI PUSH2 0x397 PUSH2 0xA02 JUMP JUMPDEST PUSH1 0x20 SWAP1 DUP2 MUL SWAP2 SWAP1 SWAP2 ADD ADD MLOAD PUSH1 0xA0 ADD MSTORE PUSH2 0x3B0 DUP4 DUP6 PUSH2 0x9EA JUMP JUMPDEST SWAP4 POP DUP1 PUSH2 0x3BC DUP2 PUSH2 0xA18 JUMP JUMPDEST SWAP2 POP POP PUSH2 0x203 JUMP JUMPDEST POP POP JUMPDEST DUP2 PUSH2 0x3D4 DUP8 PUSH1 0x0 DUP4 PUSH2 0x58C JUMP JUMPDEST SWAP5 POP SWAP5 POP POP POP POP SWAP2 POP SWAP2 JUMP JUMPDEST PUSH1 0x0 PUSH1 0x60 PUSH1 0x29 DUP5 MLOAD LT ISZERO PUSH2 0x406 JUMPI POP POP PUSH1 0x40 DUP1 MLOAD PUSH1 0x20 DUP2 ADD SWAP1 SWAP2 MSTORE PUSH1 0x0 DUP1 DUP3 MSTORE SWAP1 PUSH2 0x524 JUMP JUMPDEST PUSH1 0x0 JUMPDEST PUSH1 0x29 DUP6 MLOAD PUSH2 0x417 SWAP2 SWAP1 PUSH2 0xA31 JUMP JUMPDEST DUP2 LT ISZERO PUSH2 0x50F JUMPI PUSH2 0x428 DUP6 DUP3 PUSH2 0x73A JUMP JUMPDEST PUSH1 0x1 PUSH1 0x1 PUSH1 0xA0 SHL SUB AND DUP5 PUSH1 0x1 PUSH1 0x1 PUSH1 0xA0 SHL SUB AND SUB PUSH2 0x4FF JUMPI PUSH2 0x455 PUSH2 0x44E DUP3 PUSH1 0x28 PUSH2 0x9EA JUMP JUMPDEST DUP7 SWAP1 PUSH2 0x52B JUMP JUMPDEST PUSH1 0xFF AND PUSH1 0x20 SUB PUSH2 0x4FF JUMPI ADDRESS PUSH4 0x2521F32 PUSH2 0x494 PUSH2 0x473 DUP5 PUSH1 0x28 PUSH2 0x9EA JUMP JUMPDEST PUSH1 0x28 DUP6 DUP11 MLOAD PUSH2 0x482 SWAP2 SWAP1 PUSH2 0xA31 JUMP JUMPDEST PUSH2 0x48C SWAP2 SWAP1 PUSH2 0xA31 JUMP JUMPDEST DUP10 SWAP2 SWAP1 PUSH2 0x58C JUMP JUMPDEST PUSH1 0x40 MLOAD DUP3 PUSH4 0xFFFFFFFF AND PUSH1 0xE0 SHL DUP2 MSTORE PUSH1 0x4 ADD PUSH2 0x4B0 SWAP2 SWAP1 PUSH2 0xA48 JUMP JUMPDEST PUSH1 0x0 PUSH1 0x40 MLOAD DUP1 DUP4 SUB DUP2 DUP7 GAS STATICCALL SWAP3 POP POP POP DUP1 ISZERO PUSH2 0x4EE JUMPI POP PUSH1 0x40 MLOAD RETURNDATASIZE PUSH1 0x0 DUP3 RETURNDATACOPY PUSH1 0x1F RETURNDATASIZE SWAP1 DUP2 ADD PUSH1 0x1F NOT AND DUP3 ADD PUSH1 0x40 MSTORE PUSH2 0x4EB SWAP2 SWAP1 DUP2 ADD SWAP1 PUSH2 0xA62 JUMP JUMPDEST PUSH1 0x1 JUMPDEST ISZERO PUSH2 0x4FF JUMPI SWAP1 SWAP4 POP SWAP2 POP PUSH2 0x524 SWAP1 POP JUMP JUMPDEST PUSH2 0x508 DUP2 PUSH2 0xA18 JUMP JUMPDEST SWAP1 POP PUSH2 0x409 JUMP JUMPDEST POP POP PUSH1 0x40 DUP1 MLOAD PUSH1 0x20 DUP2 ADD SWAP1 SWAP2 MSTORE PUSH1 0x0 DUP1 DUP3 MSTORE SWAP2 POP JUMPDEST SWAP3 POP SWAP3 SWAP1 POP JUMP JUMPDEST PUSH1 0x0 PUSH2 0x538 DUP3 PUSH1 0x1 PUSH2 0x9EA JUMP JUMPDEST DUP4 MLOAD LT ISZERO PUSH2 0x583 JUMPI PUSH1 0x40 MLOAD PUSH3 0x461BCD PUSH1 0xE5 SHL DUP2 MSTORE PUSH1 0x20 PUSH1 0x4 DUP3 ADD MSTORE PUSH1 0x13 PUSH1 0x24 DUP3 ADD MSTORE PUSH19 0x746F55696E74385F6F75744F66426F756E6473 PUSH1 0x68 SHL PUSH1 0x44 DUP3 ADD MSTORE PUSH1 0x64 ADD JUMPDEST PUSH1 0x40 MLOAD DUP1 SWAP2 SUB SWAP1 REVERT JUMPDEST POP ADD PUSH1 0x1 ADD MLOAD SWAP1 JUMP JUMPDEST PUSH1 0x60 DUP2 PUSH2 0x59A DUP2 PUSH1 0x1F PUSH2 0x9EA JUMP JUMPDEST LT ISZERO PUSH2 0x5D9 JUMPI PUSH1 0x40 MLOAD PUSH3 0x461BCD PUSH1 0xE5 SHL DUP2 MSTORE PUSH1 0x20 PUSH1 0x4 DUP3 ADD MSTORE PUSH1 0xE PUSH1 0x24 DUP3 ADD MSTORE PUSH14 0x736C6963655F6F766572666C6F77 PUSH1 0x90 SHL PUSH1 0x44 DUP3 ADD MSTORE PUSH1 0x64 ADD PUSH2 0x57A JUMP JUMPDEST PUSH2 0x5E3 DUP3 DUP5 PUSH2 0x9EA JUMP JUMPDEST DUP5 MLOAD LT ISZERO PUSH2 0x627 JUMPI PUSH1 0x40 MLOAD PUSH3 0x461BCD PUSH1 0xE5 SHL DUP2 MSTORE PUSH1 0x20 PUSH1 0x4 DUP3 ADD MSTORE PUSH1 0x11 PUSH1 0x24 DUP3 ADD MSTORE PUSH17 0x736C6963655F6F75744F66426F756E6473 PUSH1 0x78 SHL PUSH1 0x44 DUP3 ADD MSTORE PUSH1 0x64 ADD PUSH2 0x57A JUMP JUMPDEST PUSH1 0x60 DUP3 ISZERO DUP1 ISZERO PUSH2 0x646 JUMPI PUSH1 0x40 MLOAD SWAP2 POP PUSH1 0x0 DUP3 MSTORE PUSH1 0x20 DUP3 ADD PUSH1 0x40 MSTORE PUSH2 0x690 JUMP JUMPDEST PUSH1 0x40 MLOAD SWAP2 POP PUSH1 0x1F DUP5 AND DUP1 ISZERO PUSH1 0x20 MUL DUP2 DUP5 ADD ADD DUP6 DUP2 ADD DUP8 DUP4 ISZERO PUSH1 0x20 MUL DUP5 DUP12 ADD ADD ADD JUMPDEST DUP2 DUP4 LT ISZERO PUSH2 0x67F JUMPI DUP1 MLOAD DUP4 MSTORE PUSH1 0x20 SWAP3 DUP4 ADD SWAP3 ADD PUSH2 0x667 JUMP JUMPDEST POP POP DUP6 DUP5 MSTORE PUSH1 0x1F ADD PUSH1 0x1F NOT AND PUSH1 0x40 MSTORE POP JUMPDEST POP SWAP5 SWAP4 POP POP POP POP JUMP JUMPDEST PUSH1 0x0 DUP1 DUP1 JUMPDEST DUP4 MLOAD DUP2 LT ISZERO PUSH2 0x6D6 JUMPI PUSH2 0x6B1 DUP5 DUP3 PUSH2 0x52B JUMP JUMPDEST PUSH2 0x6C2 SWAP1 PUSH1 0xFF AND PUSH1 0x8 DUP5 SWAP1 SHL PUSH2 0x9EA JUMP JUMPDEST SWAP2 POP DUP1 PUSH2 0x6CE DUP2 PUSH2 0xA18 JUMP JUMPDEST SWAP2 POP POP PUSH2 0x69E JUMP JUMPDEST POP SWAP3 SWAP2 POP POP JUMP JUMPDEST PUSH1 0x0 PUSH2 0x6EA DUP3 PUSH1 0x2 PUSH2 0x9EA JUMP JUMPDEST DUP4 MLOAD LT ISZERO PUSH2 0x731 JUMPI PUSH1 0x40 MLOAD PUSH3 0x461BCD PUSH1 0xE5 SHL DUP2 MSTORE PUSH1 0x20 PUSH1 0x4 DUP3 ADD MSTORE PUSH1 0x14 PUSH1 0x24 DUP3 ADD MSTORE PUSH20 0x746F55696E7431365F6F75744F66426F756E6473 PUSH1 0x60 SHL PUSH1 0x44 DUP3 ADD MSTORE PUSH1 0x64 ADD PUSH2 0x57A JUMP JUMPDEST POP ADD PUSH1 0x2 ADD MLOAD SWAP1 JUMP JUMPDEST PUSH1 0x0 PUSH2 0x747 DUP3 PUSH1 0x14 PUSH2 0x9EA JUMP JUMPDEST DUP4 MLOAD LT ISZERO PUSH2 0x78F JUMPI PUSH1 0x40 MLOAD PUSH3 0x461BCD PUSH1 0xE5 SHL DUP2 MSTORE PUSH1 0x20 PUSH1 0x4 DUP3 ADD MSTORE PUSH1 0x15 PUSH1 0x24 DUP3 ADD MSTORE PUSH21 0x746F416464726573735F6F75744F66426F756E6473 PUSH1 0x58 SHL PUSH1 0x44 DUP3 ADD MSTORE PUSH1 0x64 ADD PUSH2 0x57A JUMP JUMPDEST POP ADD PUSH1 0x20 ADD MLOAD PUSH1 0x1 PUSH1 0x60 SHL SWAP1 DIV SWAP1 JUMP JUMPDEST PUSH1 0x40 MLOAD DUP1 PUSH1 0x40 ADD PUSH1 0x40 MSTORE DUP1 PUSH2 0x7F2 PUSH1 0x40 MLOAD DUP1 PUSH1 0xE0 ADD PUSH1 0x40 MSTORE DUP1 PUSH1 0x60 DUP2 MSTORE PUSH1 0x20 ADD PUSH1 0x60 DUP2 MSTORE PUSH1 0x20 ADD PUSH1 0x0 PUSH2 0xFFFF AND DUP2 MSTORE PUSH1 0x20 ADD PUSH1 0x60 DUP2 MSTORE PUSH1 0x20 ADD PUSH1 0x0 PUSH2 0xFFFF AND DUP2 MSTORE PUSH1 0x20 ADD PUSH1 0x60 DUP2 MSTORE PUSH1 0x20 ADD PUSH1 0x0 DUP2 MSTORE POP SWAP1 JUMP JUMPDEST DUP2 MSTORE PUSH1 0x20 ADD PUSH1 0x60 DUP2 MSTORE POP SWAP1 JUMP JUMPDEST PUSH4 0x4E487B71 PUSH1 0xE0 SHL PUSH1 0x0 MSTORE PUSH1 0x41 PUSH1 0x4 MSTORE PUSH1 0x24 PUSH1 0x0 REVERT JUMPDEST PUSH1 0x40 MLOAD PUSH1 0x1F DUP3 ADD PUSH1 0x1F NOT AND DUP2 ADD PUSH8 0xFFFFFFFFFFFFFFFF DUP2 GT DUP3 DUP3 LT OR ISZERO PUSH2 0x83E JUMPI PUSH2 0x83E PUSH2 0x7FF JUMP JUMPDEST PUSH1 0x40 MSTORE SWAP2 SWAP1 POP JUMP JUMPDEST PUSH1 0x0 PUSH8 0xFFFFFFFFFFFFFFFF DUP3 GT ISZERO PUSH2 0x860 JUMPI PUSH2 0x860 PUSH2 0x7FF JUMP JUMPDEST POP PUSH1 0x1F ADD PUSH1 0x1F NOT AND PUSH1 0x20 ADD SWAP1 JUMP JUMPDEST PUSH1 0x0 DUP3 PUSH1 0x1F DUP4 ADD SLT PUSH2 0x87F JUMPI PUSH1 0x0 DUP1 REVERT JUMPDEST DUP2 CALLDATALOAD PUSH2 0x892 PUSH2 0x88D DUP3 PUSH2 0x846 JUMP JUMPDEST PUSH2 0x815 JUMP JUMPDEST DUP2 DUP2 MSTORE DUP5 PUSH1 0x20 DUP4 DUP7 ADD ADD GT ISZERO PUSH2 0x8A7 JUMPI PUSH1 0x0 DUP1 REVERT JUMPDEST DUP2 PUSH1 0x20 DUP6 ADD PUSH1 0x20 DUP4 ADD CALLDATACOPY PUSH1 0x0 SWAP2 DUP2 ADD PUSH1 0x20 ADD SWAP2 SWAP1 SWAP2 MSTORE SWAP4 SWAP3 POP POP POP JUMP JUMPDEST PUSH1 0x0 PUSH1 0x20 DUP3 DUP5 SUB SLT ISZERO PUSH2 0x8D6 JUMPI PUSH1 0x0 DUP1 REVERT JUMPDEST DUP2 CALLDATALOAD PUSH8 0xFFFFFFFFFFFFFFFF DUP2 GT ISZERO PUSH2 0x8ED JUMPI PUSH1 0x0 DUP1 REVERT JUMPDEST PUSH2 0x8F9 DUP5 DUP3 DUP6 ADD PUSH2 0x86E JUMP JUMPDEST SWAP5 SWAP4 POP POP POP POP JUMP JUMPDEST PUSH1 0x0 JUMPDEST DUP4 DUP2 LT ISZERO PUSH2 0x91C JUMPI DUP2 DUP2 ADD MLOAD DUP4 DUP3 ADD MSTORE PUSH1 0x20 ADD PUSH2 0x904 JUMP JUMPDEST DUP4 DUP2 GT ISZERO PUSH2 0x92B JUMPI PUSH1 0x0 DUP5 DUP5 ADD MSTORE JUMPDEST POP POP POP POP JUMP JUMPDEST PUSH1 0x0 DUP2 MLOAD DUP1 DUP5 MSTORE PUSH2 0x949 DUP2 PUSH1 0x20 DUP7 ADD PUSH1 0x20 DUP7 ADD PUSH2 0x901 JUMP JUMPDEST PUSH1 0x1F ADD PUSH1 0x1F NOT AND SWAP3 SWAP1 SWAP3 ADD PUSH1 0x20 ADD SWAP3 SWAP2 POP POP JUMP JUMPDEST DUP3 DUP2 MSTORE PUSH1 0x40 PUSH1 0x20 DUP3 ADD MSTORE PUSH1 0x0 PUSH2 0x8F9 PUSH1 0x40 DUP4 ADD DUP5 PUSH2 0x931 JUMP JUMPDEST PUSH1 0x0 DUP1 PUSH1 0x40 DUP4 DUP6 SUB SLT ISZERO PUSH2 0x989 JUMPI PUSH1 0x0 DUP1 REVERT JUMPDEST DUP3 CALLDATALOAD PUSH8 0xFFFFFFFFFFFFFFFF DUP2 GT ISZERO PUSH2 0x9A0 JUMPI PUSH1 0x0 DUP1 REVERT JUMPDEST PUSH2 0x9AC DUP6 DUP3 DUP7 ADD PUSH2 0x86E JUMP JUMPDEST SWAP3 POP POP PUSH1 0x20 DUP4 ADD CALLDATALOAD PUSH1 0x1 PUSH1 0x1 PUSH1 0xA0 SHL SUB DUP2 AND DUP2 EQ PUSH2 0x9C9 JUMPI PUSH1 0x0 DUP1 REVERT JUMPDEST DUP1 SWAP2 POP POP SWAP3 POP SWAP3 SWAP1 POP JUMP JUMPDEST PUSH4 0x4E487B71 PUSH1 0xE0 SHL PUSH1 0x0 MSTORE PUSH1 0x11 PUSH1 0x4 MSTORE PUSH1 0x24 PUSH1 0x0 REVERT JUMPDEST PUSH1 0x0 DUP3 NOT DUP3 GT ISZERO PUSH2 0x9FD JUMPI PUSH2 0x9FD PUSH2 0x9D4 JUMP JUMPDEST POP ADD SWAP1 JUMP JUMPDEST PUSH4 0x4E487B71 PUSH1 0xE0 SHL PUSH1 0x0 MSTORE PUSH1 0x32 PUSH1 0x4 MSTORE PUSH1 0x24 PUSH1 0x0 REVERT JUMPDEST PUSH1 0x0 PUSH1 0x1 DUP3 ADD PUSH2 0xA2A JUMPI PUSH2 0xA2A PUSH2 0x9D4 JUMP JUMPDEST POP PUSH1 0x1 ADD SWAP1 JUMP JUMPDEST PUSH1 0x0 DUP3 DUP3 LT ISZERO PUSH2 0xA43 JUMPI PUSH2 0xA43 PUSH2 0x9D4 JUMP JUMPDEST POP SUB SWAP1 JUMP JUMPDEST PUSH1 0x20 DUP2 MSTORE PUSH1 0x0 PUSH2 0xA5B PUSH1 0x20 DUP4 ADD DUP5 PUSH2 0x931 JUMP JUMPDEST SWAP4 SWAP3 POP POP POP JUMP JUMPDEST PUSH1 0x0 DUP1 PUSH1 0x40 DUP4 DUP6 SUB SLT ISZERO PUSH2 0xA75 JUMPI PUSH1 0x0 DUP1 REVERT JUMPDEST DUP3 MLOAD SWAP2 POP PUSH1 0x20 DUP4 ADD MLOAD PUSH8 0xFFFFFFFFFFFFFFFF DUP2 GT ISZERO PUSH2 0xA93 JUMPI PUSH1 0x0 DUP1 REVERT JUMPDEST DUP4 ADD PUSH1 0x1F DUP2 ADD DUP6 SGT PUSH2 0xAA4 JUMPI PUSH1 0x0 DUP1 REVERT JUMPDEST DUP1 MLOAD PUSH2 0xAB2 PUSH2 0x88D DUP3 PUSH2 0x846 JUMP JUMPDEST DUP2 DUP2 MSTORE DUP7 PUSH1 0x20 DUP4 DUP6 ADD ADD GT ISZERO PUSH2 0xAC7 JUMPI PUSH1 0x0 DUP1 REVERT JUMPDEST PUSH2 0xAD8 DUP3 PUSH1 0x20 DUP4 ADD PUSH1 0x20 DUP7 ADD PUSH2 0x901 JUMP JUMPDEST DUP1 SWAP4 POP POP POP POP SWAP3 POP SWAP3 SWAP1 POP JUMP INVALID LOG2 PUSH5 0x6970667358 0x22 SLT KECCAK256 DUP7 SWAP5 0xE2 0xE5 EXTCODESIZE COINBASE 0x4C 0xDE PUSH29 0x2B29F214A00321354FD6C874C3168BED5D5FAAD3D8B25F64736F6C6343 STOP ADDMOD 0xD STOP CALLER ",
  "sha1": "0a441ab639c172783163227b2a1ffa0781ce0e99",
  "source": "pragma solidity 0.8.13;\n\nimport {LibSwap} from \"../Libraries/LibSwap.sol\";\nimport {ISo} from \"../Interfaces/ISo.sol\";\nimport \"../Libraries/LibCross.sol\";\n\ncontract StargateHelper {\n    using LibBytes for bytes;\n\n    struct CachePayload {\n        ISo.NormalizedSoData soData;\n        LibSwap.NormalizedSwapData[] swapDataDst;\n    }\n\n    function tryFindStargatePayload(bytes memory inputData, address soDiamond)\n        external\n        view\n        returns (uint256, bytes memory)\n    {\n        if (inputData.length < 41) {\n            return (0, bytes(\"\"));\n        }\n        for (uint256 i; i < inputData.length - 41; ++i) {\n            if (soDiamond == inputData.toAddress(i)) {\n                if (inputData.toUint8(i + 40) == 32) {\n                    try\n                        this.findStargatePayload(\n                            inputData.slice(i + 40, inputData.length - i - 40)\n                        )\n                    returns (uint256 index, bytes memory stargatePayload) {\n                        return (index, stargatePayload);\n                    } catch {}\n                }\n            }\n        }\n        return (0, bytes(\"\"));\n    }\n\n    /// CrossData\n    // 1. length + transactionId(SoData)\n    // 2. length + receiver(SoData)\n    // 3. length + receivingAssetId(SoData)\n    // 4. length + swapDataLength(u8)\n    // 5. length + callTo(SwapData)\n    // 6. length + sendingAssetId(SwapData)\n    // 7. length + receivingAssetId(SwapData)\n    // 8. length + callData(SwapData)\n    function findStargatePayload(bytes memory stargatePayload)\n        external\n        view\n        returns (uint256, bytes memory)\n    {\n        CachePayload memory data;\n        uint256 index;\n        uint256 nextLen;\n\n        nextLen = uint256(stargatePayload.toUint8(index));\n        index += 1;\n        data.soData.transactionId = stargatePayload.slice(index, nextLen);\n        index += nextLen;\n\n        nextLen = uint256(stargatePayload.toUint8(index));\n        index += 1;\n        data.soData.receiver = stargatePayload.slice(index, nextLen);\n        index += nextLen;\n\n        nextLen = uint256(stargatePayload.toUint8(index));\n        index += 1;\n        data.soData.receivingAssetId = stargatePayload.slice(index, nextLen);\n        index += nextLen;\n\n        if (index < stargatePayload.length) {\n            nextLen = uint256(stargatePayload.toUint8(index));\n            index += 1;\n            uint256 swap_len = LibCross.deserializeU256WithHexStr(\n                stargatePayload.slice(index, nextLen)\n            );\n            index += nextLen;\n\n            data.swapDataDst = new LibSwap.NormalizedSwapData[](swap_len);\n            for (uint256 i = 0; i < swap_len; i++) {\n                nextLen = uint256(stargatePayload.toUint8(index));\n                index += 1;\n                data.swapDataDst[i].callTo = stargatePayload.slice(\n                    index,\n                    nextLen\n                );\n                data.swapDataDst[i].approveTo = data.swapDataDst[i].callTo;\n                index += nextLen;\n\n                nextLen = uint256(stargatePayload.toUint8(index));\n                index += 1;\n                data.swapDataDst[i].sendingAssetId = stargatePayload.slice(\n                    index,\n                    nextLen\n                );\n                index += nextLen;\n\n                nextLen = uint256(stargatePayload.toUint8(index));\n                index += 1;\n                data.swapDataDst[i].receivingAssetId = stargatePayload.slice(\n                    index,\n                    nextLen\n                );\n                index += nextLen;\n\n                nextLen = uint256(stargatePayload.toUint16(index));\n                index += 2;\n                data.swapDataDst[i].callData = stargatePayload.slice(\n                    index,\n                    nextLen\n                );\n                index += nextLen;\n            }\n        }\n        return (index, stargatePayload.slice(0, index));\n    }\n}\n",
  "sourcePath": "contracts/Helpers/StargateHelper.sol",
  "type": "contract"
}